:020000040800F2
:1000000000110020D5020008B1710008215C000831
:10001000A16F0008711B0008E581000800000000C6
:10002000000000000000000000000000C17800088F
:10003000FD1B000800000000D9770008317A000895
:10004000EF020008EF020008EF020008EF020008CC
:10005000EF020008EF020008011C0008EF02000890
:10006000EF020008191C0008EF020008EF02000868
:10007000EF020008EF020008EF020008EF0200089C
:10008000EF020008EF020008EF020008EF0200088C
:10009000751B0008EF020008EF020008EF020008DD
:1000A000EF020008F97A0008EF020008EF020008EA
:1000B000EF020008EF020008197B0008EF020008B9
:1000C000EF020008EF020008EF020008EF0200084C
:1000D000EF020008CD810008EF020008EF020008DF
:1000E000EF020008EF020008EF020008EF0200082C
:1000F000257B0008EF020008EF020008EF0200086D
:10010000EF020008EF020008EF020008EF0200080B
:10011000EF020008EF020008EF020008EF020008FB
:10012000EF020008EF020008EF020008EF020008EB
:10013000EF020008EF020008EF020008EF020008DB
:10014000EF020008EF020008EF020008EF020008CB
:10015000EF020008E51B0008F11B0008D981000828
:10016000EF020008EF020008EF020008EF020008AB
:10017000EF020008EF020008EF0200080000000094
:10018000EF020008EF02000800F002F800F092F819
:100190000AA090E8000C82448344AAF10107DA45E2
:1001A00001D100F087F8AFF2090EBAE80F0013F0A2
:1001B000010F18BFFB1A43F00103184744A90000C0
:1001C00064A90000103A24BF78C878C1FAD8520751
:1001D00024BF30C830C144BF04680C6070470000C1
:1001E0000023002400250026103A28BF78C1FBD840
:1001F000520728BF30C148BF0B6070476E2900F01E
:10020000C983702900F0418766290AF0BC836529FB
:100210000AF0B98367290AF0B68361290AF0B58329
:1002200003681B0A28BF41F08001692900F0328170
:10023000642900F02F81752900F02C816F2900F0CE
:10024000CF86782900F00D87E92900F06986E42936
:1002500000F06686F52900F06386EF2900F0CC8671
:10026000F82900F00C870368DB0928BF41F0800102
:10027000632900F0D885732900F0DD85E32901F0BA
:100280002581F32901F02A81002070471FB50AF06B
:1002900068FB00F005FF04000020002109F0A6FE25
:1002A000401C60600020002109F08AFEE0601FBD54
:1002B00010B510BD01F0B4F91146FFF7E7FF08F0E3
:1002C000CFFC01F0DBF903B4FFF7F2FF03BC08F049
:1002D0000DF900000948804709480047FEE7FEE79E
:1002E000FEE7FEE7FEE7FEE7FEE7FEE7FEE7FEE7E6
:1002F00004480549054A064B70470000E57A0008A6
:1003000089010008000B002000110020000D0020D2
:10031000000D002053EA020C00F069802DE9F04B3B
:100320004FF00006002B1FBFB3FA83F503FA05F464
:1003300024FA05F65E4012BF1643B2FA82F502FABD
:1003400005F4C5F120051EBF22FA05FC44EA0C04A1
:10035000203556EA044C4FEA144418BF641C4FF091
:1003600000084FF00009904271EB030C39D30029CB
:1003700019BFB1FA81F701FA07F6B0FA80F700FA6F
:1003800007F6C7F120071EBF20FA07FC46EA0C0655
:100390002037B6FBF4FCA7EB0507103F07F01F0B57
:1003A000CBF120062CFA06F60CFA0BFB44BFB34641
:1003B0000026202FA4BF5E464FF0000B5BEA060C20
:1003C00008BF4FF0010B19EB0B0948EB0608ABFB1C
:1003D000027C06FB02CC0BFB03CCC01B71EB0C01B7
:1003E000C1E70B46024641464846BDE8F08B13B5CF
:1003F000084318BF4FF0FF300146AFF30080BDE85F
:100400001C4070471CB50C46064B7B446946009067
:10041000204600F0E6FC04460020694600F0F4FCAB
:1004200020461CBDFB0900000FB4044910B503AA07
:10043000029800F005FD10BC5DF814FBD803002005
:1004400070B50C460546012A05D02878800600D5EF
:10045000EA69002302E0012305E05B1C934202D21B
:10046000E05C0028F9D1A869E618C01AA861286ADA
:1004700018442862284600F0FBF904E0D5E9012180
:1004800014F8010B9047B442F8D3284600F006FA5E
:1004900070BD00002DE9F041064600241068752962
:1004A000314616A510D000F00AFA002802DA4042C0
:1004B00013A507E031688A0701D512A502E04907B4
:1004C00004D511A5012401E000F002FA00210A225E
:1004D00006F1240709E0B0FBF2FCB0FBF2F302FBEB
:1004E0001C00303078541846491C0028F3D12346AC
:1004F0002A463046BDE8F04100F0F3B900000000A4
:100500002D0000002B000000200000002DE9F05F0E
:10051000894604464FF0000ADFF874B1FB44C0F886
:1005200020A02046E1688847002874D0252806D0FE
:10053000D4E901219047206A401C2062F1E700269F
:100540005F462046E16888472028054607DB312DB5
:1005500005D2781910F8200C08B10643F1E7B0076E
:1005600001D526F00406C4F81CA00027C4F818A082
:100570002A2D09D0284609F0FDFC38B304EB870882
:10058000303DC8F8185019E059F8041B204604EB18
:1005900087029161E1688847012F054618D1E0691B
:1005A000002820DA26F020061DE0D8F8180000EB1D
:1005B000800005EB40003038C8F818002046E1689C
:1005C0008847054609F0D6FC0028EED1012F0AD055
:1005D0002E2D08D12046E16888477F1C0546022F52
:1005E00046F02006C4DBA069002803DA404246F04A
:1005F0000106A061F00701D026F010066C2D0BD08B
:10060000682D09D04C2D39D06A2D35D0742D35D0B8
:100610007A2D33D016E038E0E1682F46204688472F
:10062000B842054609D16C2F26D04FF48060E168AE
:10063000064320468847054604E06C2F1AD04FF445
:10064000807006430DB3A5F14100192802D820356A
:1006500046F400664A462946204626604E46FFF785
:10066000CDFD80B101280BD0F61D26F0070000F16A
:10067000080956E74020E4E78020D8E70020D6E7C5
:1006800006F104094DE7284652E7206ABDE8F09FCD
:100690006EA4000010B5044603E008F097F9401C72
:1006A00009D014F8010B05490028F6D1BDE8104027
:1006B0000A2008F08BB94FF0FF3010BDD80300209E
:1006C000401ECAB210F8011F8A4202D00029F9D197
:1006D00000207047032A40F2308010F0030C00F035
:1006E000158011F8013BBCF1020F624498BF11F86C
:1006F00001CB00F8013B38BF11F8013BA2F1040225
:1007000098BF00F801CB38BF00F8013B11F003039C
:1007100000F02580083AC0F0088051F8043B083A00
:1007200051F804CBA0E80810F5E7121D5CBF51F8A2
:10073000043B40F8043BAFF30080D20724BF11F81C
:10074000013B11F801CB48BF11F8012B24BF00F881
:10075000013B00F801CB48BF00F8012B704710B5F2
:10076000203AC0F00B80B1E81850A0E81850B1E86A
:100770001850A0E81850203ABFF4F5AF5FEA027CA9
:1007800024BFB1E81850A0E8185044BF18C918C0D9
:10079000BDE810405FEA827C24BF51F8043B40F87A
:1007A000043B08BF7047D20728BF31F8023B48BF5F
:1007B00011F8012B28BF20F8023B48BF00F8012B9D
:1007C00070474FF000020429C0F0128010F0030CB3
:1007D00000F01B80CCF1040CBCF1020F18BF00F834
:1007E000012BA8BF20F8022BA1EB0C0100F00DB8E3
:1007F0005FEAC17C24BF00F8012B00F8012B48BF41
:1008000000F8012B70474FF0000200B513469446E4
:100810009646203922BFA0E80C50A0E80C50B1F158
:100820002001BFF4F7AF090728BFA0E80C5048BF6C
:100830000CC05DF804EB890028BF40F8042B08BF0A
:10084000704748BF20F8022B11F0804F18BF00F806
:10085000012B704770477047704710B500F024FCBB
:10086000006810BD10B5044600F01EFC046010BD09
:1008700070B5044685690068C10601D5302600E0E0
:100880002026C00707D070BDD4E90121304690472B
:10089000206A401C20626D1EF6D570BD70B50446FE
:1008A00085690078C00707D170BDD4E901212020F7
:1008B0009047206A401C20626D1EF6D570BD096805
:1008C0004A0501D540B27047C905FCD500B2704752
:1008D00009684A0501D5C0B27047C905FCD580B288
:1008E00070472DE9F0470D4699469246044600F1BF
:1008F00024080168880604D5E06921F01001216010
:1009000000E00120A84201DD471B00E00027A169AB
:100910007A1902EB0900081AA0612078C00602D4F7
:100920002046FFF7A5FF002608E0D4E901211AF8C8
:1009300006009047206A401C761C20624E45F4DB7E
:100940002078C0060AD52046FFF792FF06E0D4E9DA
:10095000012130209047206A401C2062381EA7F1F8
:100960000107F4DC07E0D4E9012118F805009047FD
:10097000206A401C2062281EA5F10105F3DC2046F8
:10098000FFF78CFF2078000602D50220BDE8F08733
:100990000120FBE711680268006A530501D5087061
:1009A0000AE0D30501D5088006E0130603D5C21777
:1009B000C1E9000200E00860012070472DE9FF4F07
:1009C0000C461E464FF0FF378BB0D2E90001DDF830
:1009D00060800A908A46C1F30A5505B93D46002158
:1009E00008464FF00000BAF1000F00F4400005DAAD
:1009F00000EB80004FF4400101EA50004FEA9059AB
:100A0000B9F1010F00DDB9460A9850EA4A000ED04C
:100A100044F61050A5F2FF3545432F14B8F1000FEE
:100A20001ED07542291E1EDDC9F100021CE0B8F17E
:100A3000010F4FF0000001D0302103E0F24305E048
:100A40002154401CB042FBDB3046002200212154DF
:100A50000B99C1F80880C1E900200FB0BDE8F08F04
:100A6000BD1B6D1CDEE74A4600DA694206A800F0AD
:100A700039FD06AB93E8070003AB83E80700504657
:100A80000A9908F066FA8DE80700A0F500501F38B3
:100A900000900398002D0ADD42F21F014A460844E7
:100AA000002303A90390684608F0D0FC09E0A0F5F4
:100AB00000504A461F38002303A90390684608F0F7
:100AC000DAFC8DE807000004000C03D04FF0FF3083
:100AD000410800E01046B8F1000F03D00022009258
:100AE00015461EE0751E05D400F0E2FA303262555C
:100AF0006D1EF9D5B3460122084302D000227F1CA7
:100B000004E02078302801D100227F1E002A0997B6
:100B100084D01DE0112D07DA00F0CAFA3032625598
:100B20006D1C50EA0102F5D1084302D00098C8B10B
:100B30000EE00021681E05E0235C625C63542254D1
:100B4000401E491C8142F7DBAB46A81B401E0990A2
:100B5000002004F80B000B98099AC0F80880C0E93F
:100B6000002B7AE711264FF0000857E72DE9F04FE8
:100B700088460446D21D22F0070191B0D1E9000158
:100B8000CDE90A0108F0AEFD02460B98C00F01D076
:100B90002D2007E02068810701D52B2002E02021CD
:100BA00001EAC000032A099001D0072A05DB0346A9
:100BB0004146204600F040FC0BE12078800601D53C
:100BC000E06900E00620B8F1650F814606D0B8F173
:100BD000660F18D0B8F1670F70D131E00020B9F17D
:100BE000110F009001DB112301E009F101030AAAB2
:100BF00001A90CA8FFF7E2FEDDE90C70002609F15F
:100C00000105834647E001204B4600904FF0004726
:100C10000AAA01A90CA8FFF7D1FEDDE90DB00C99D5
:100C20005D46002610B909F101000D18B9EB050069
:100C300003D4C0F1FF3609F10105A5EB09002BE053
:100C4000B9F1010F01DA4FF001090020B9F1110FDC
:100C50000090484601DD112300E003460AAA01A9DD
:100C60000CA8FFF7ABFEDDE90C704D46002683466D
:100C7000207800070AD4AB4500DA5D4601A8012DB3
:100C800004DD411911F8011C302907D04F4502DA63
:100C900017F1040F04DA012082460FE06D1EEEE723
:100CA000002F02DCED1B3E4403E0781CA84200DD6F
:100CB0007D1CB81B00F1010A4FF0004720780007A7
:100CC00003D4AA4501DB4FF0FF3A0021B7F1004FF2
:100CD0000DF143088DF8431024D002202B23002F60
:100CE00001DA7F422D230A21021EA0F1010000DC5F
:100CF0005FB197FBF1FC97FBF1F201FB1C7C1746FF
:100D00000CF1300C08F801CDEEE7A8F101000370FA
:100D10002188090501D5452100E06521A0F10108E0
:100D200000F8011C09980FA9A1EB0807FF1D00B1ED
:100D30000120411901EBEA70A1693844081A401EEC
:100D4000A0612078C00602D42046FFF791FD0998E3
:100D500028B1D4E901219047206A401C2062207804
:100D6000C00622D52046FFF783FD1EE0002E04DBDF
:100D7000B34502DD01A8805D00E03020D4E9012107
:100D80009047206A401C2062761CAAF101005FEAAD
:100D9000000A0AD100F084F9C0680168405CD4E917
:100DA00001219047206A401C2062281EA5F1010500
:100DB000DCDC07E0D4E9012118F8010B9047206A38
:100DC000401C2062381EA7F10107F3DC2046FFF724
:100DD00065FD032011B041E601694A1C02610878F3
:100DE000704700B58FB0CDE901310021059105496B
:100DF0007944CDE9031011466846FFF787FB0FB031
:100E000000BD0000E5FFFFFF0A6802F8010B0A6061
:100E1000704710B5436913B1AFF3008001E0FFF7ED
:100E20000FFB012010BD127800F124010A7000228E
:100E30004A700122EDE711684FF0FF32E9E7000048
:100E4000074B70B50D467B44FFF7CBFF04462846A1
:100E500000F0BAFB10B14FF0FF3070BD204670BDFE
:100E6000837B00002DE9FF5F15468A460446DFF8C4
:100E7000AC80F8440027D8E900103E46CDE90010C8
:100E800010E03AF816106A4602A800F0A1FB411CD7
:100E900007D02178890603D5E269391891420DD827
:100EA0000744761C2078800602D5E069B84205DD4B
:100EB000AE42E6DB3AF816000028E2D1A069C01B7A
:100EC000A0612046FFF7D4FCD8E90010CDE900105E
:100ED000002017E03AF818106A4602A800F078FBE4
:100EE000B0F1FF3F81460BD000250DF1080B05E066
:100EF000D4E901211BF8050090476D1C4D45F7D33F
:100F000008F10100B0428046E4DB206A38442062E8
:100F10002046FFF7C3FCBDE8FF9F00002A9B0000AE
:100F20002DE9F0418046D21D22F007020025D2E9CA
:100F30000002F52915A614D0011E72F1000106DA8F
:100F40000023D0EB030063EB020211A608E0D8F8FF
:100F500000108B0701D50FA602E0490701D50EA6A8
:100F600001251146002408F1240704E000F0A0F850
:100F700030323A55641C50EA0102F7D12B46324612
:100F800021464046BDE8F041FFF7ABBC0000000041
:100F90002D0000002B0000002000000030B40021D4
:100FA00000F1240408E002F00705D208303542EAD7
:100FB0004372DB086554491C52EA0305F3D1046807
:100FC000002310A2250708D504F020040C4304D008
:100FD000C46901230CA2641EC46130BCFFF781BC4C
:100FE00010B5044621461068FFF772FC0246204601
:100FF000BDE810400023D1E7D21D22F00701D1E95E
:101000000023CBE70000000030000000F0B40D46E4
:101010000188090502D5214C7C4402E01F4C7C4428
:101020000E34002100F1240608E002F00F07120937
:10103000E75D42EA03721B097754491C52EA030731
:10104000F3D102780023120704D5702D06D009B120
:10105000022311342246F0BCFFF743BC01231034B5
:10106000F8E770B504460D4621461068FFF730FCDE
:10107000024629462046BDE870400023C6E7D21D3F
:1010800022F00703D3E90023C0E70368126843F0A6
:10109000200303600823C3610023B7E78C99000095
:1010A0000048704778000020004870475800002032
:1010B00030B5B0F10A0271F100034FEA900E4EEA2A
:1010C000817EB0EB0E0061EB91014FEA101E4EEAFB
:1010D000017E10EB0E0041EB11114FEA102E4EEA8B
:1010E000016E10EB0E0041EB11214FEA104E4EEA5B
:1010F000014E10EB0E0041EB1141401841F100018F
:101100004FEAD00040EA41704FEAD1014FEA810432
:1011100044EA907410EB800544EB01046D1944EB34
:101120000404521BA3414FF0000348BF0A3200D50C
:1011300030BD401C41F1000130BD00002DE9F04FF1
:1011400004460D46D21D22F0070089B0D0E9009771
:101150004846394608F0C6FA0246F80F01D02D235A
:1011600007E02068810701D52B2302E0202101EA56
:10117000C0038DF820300BB1012000E00020032ACD
:10118000824601D0072A04DB2946204600F054F9A4
:101190003FE12078800601D40D2500E0E569C7F322
:1011A0000A560D2D49DA00214FEA175B08464FF029
:1011B0000000002F00F4400007DA00EB80004FF43D
:1011C000400100EBD07001EA60008115012901DDCA
:1011D0004FF0FF3100224FEA850CBCF1180F06D307
:1011E0001346ACF118004FF08052C24003E04FF4B8
:1011F000801323FA0CF30CF10C0CBCF1200F04D378
:10120000ACF1200C09FA0CF001E007FA0CF000290F
:101210004FF0004801DD18B90FE00ED140450CD366
:1012200019EB02095F4121B9404502D19F4329EAE8
:101230000209BBEB175F00D0761C2088000502D5A1
:101240007B48784402E07A487844193808AA302369
:1012500002F80A30037C0AF10101002E0AF1020AA9
:1012600053546A4602DC4FF0300101E04FF0310187
:101270004FF001088DF8001002D0A6F2FF3603E00F
:1012800059EA470100D06B4E002D02DC2178090796
:1012900004D54FF002082E218DF80110C44600211C
:1012A0000BE0C7F303433F01C35C491C6D1E02F80A
:1012B0000830052908F1010801DA002DF1DC0021D0
:1012C0000CE000EB1973491C1B786D1E082902F80D
:1012D00008304FEA091908F1010801DA002DF0DCA5
:1012E00021688B0602D516E0A8F10108E04505DD6E
:1012F00002EB080313F8013C302BF5D0B8F1000FD6
:1013000009DD02EB080313F8013C2E2B03D109077A
:1013100001D4A8F10108002D05DD3E2102F80810D6
:101320006D1E08F10108407C002E02F8080008F14B
:10133000010804DA2D20764202F8080002E02B2092
:1013400002F808000A214FF47A70864208F1010879
:101350000BDB96FBF0F3303302F8083096FBF0F32A
:1013600008F1010800FB136601E0642E0CDB642029
:1013700096FBF0F3303302F8083096FBF0F308F1F7
:10138000010800FB136601E00A2E06DB96FBF1F074
:10139000303002F8080008F1010896FBF1F001FB7B
:1013A0001060303002F80800A16908F1010808EB6C
:1013B000050202EB0A00081AA0612078C00602D4D8
:1013C0002046FFF755FA216A08AE01EB0A002062B9
:1013D00004E0D4E9012116F8010B9047BAF1010AA3
:1013E000F7D22078C00602D52046FFF741FA6E46B4
:1013F00009E016F8010B3E280FD0D4E901219047EF
:10140000206A401C2062B8F10108F2D22046FFF7A2
:1014100045FA09B00320BDE8F08F206A2844206215
:1014200003E0D4E90121302090476D1EEBD3F8E7AB
:10143000BD97000002FCFFFF2DE9F0411F46044666
:1014400003260168072A01F4006004DB08B116A531
:1014500005E016A503E008B115A500E015A521F0EB
:1014600010002060A069C01EA0610FB1401EA061E5
:101470002046FFF7FDF94FB1D4E9012138469047E6
:10148000206A401C2062C01C206206E0206AFAE745
:10149000D4E9012115F8010B9047761EF8D22046B9
:1014A000FFF7FCF9BDE8F0814E414E006E616E0021
:1014B000494E4600696E660010B5436913B1AFF33B
:1014C000008001E0FFF7CEFC012010BD128800F182
:1014D000240182840022C2840122EDE711684FF0CA
:1014E000FF32E9E72DE9F047814616468AB03548D4
:1014F00078440DC88DE80D0032487844801C03AC58
:101500000DC884E80D0041F69B300844372190FB5C
:10151000F1F290FBF1F5A5F1800501FB12041B3CF3
:1015200002D56442012000E00020DFF898A0804648
:101530000027FA44AAF1BE0A0EE0E0070AD03246BC
:10154000684607EB470101230AEB810107F093FF8F
:101550008DE8070064107F1C002CEED1194F7F44EA
:10156000AE3F19E0E80715D007EB04100DF1180A9B
:1015700090E80E008AE80E00C068F04201D1981988
:1015800008903246012306A903A807F074FF03ABB5
:1015900083E807006D10641C002DE3D14FF00103B8
:1015A00032466946B8F1000F03A802D007F04EFF9B
:1015B00001E007F060FFC9E90001C9F808200AB09E
:1015C000BDE8F087A0950000007B00F08000704728
:1015D0002DE9F04116460C46054600F047F8036831
:1015E00093F80101012807D0FF2C12D8185D80B1B3
:1015F00001202C70BDE8F081D3F807013246214666
:1016000003F20713C7182846BC46BDE8F041002383
:1016100060474FF0FF30EDE700487047580000206A
:101620007546FFF7F9FFAE4605006946534620F0C0
:101630000700854618B020B5FEF75AFEBDE82040E9
:101640004FF000064FF000074FF000084FF0000B7E
:10165000AC46ACE8C009ACE8C009ACE8C009ACE8ED
:10166000C00921F007018D467047000010B5FFF753
:1016700017FD001D10BD00BF7589000010B50446A0
:10168000AFF300802046BDE81040FEF71CBE00000E
:1016900030B44FF0013C50F8042B51F8043BCCFA25
:1016A00052F4D51A20D1FCB950F8042B51F8043B60
:1016B000CCFA52F4D51A17D1B4B950F8042B51F81A
:1016C000043BCCFA52F4D51A0ED16CB950F8042B65
:1016D00051F8043BCCFA52F4D51A05D1002CDAD0DB
:1016E00030BC4FF00000704729BAB1FA81F111F017
:1016F0001801D1F120008440F2D1CA40CB4012F051
:10170000FF0213F0FF0330BCD01A70470020C4F270
:1017100002001021012201F04BBF00000020C4F2A2
:1017200002001021002201F043BF000070470000BA
:1017300040F20040C4F202000121012201F038BF52
:1017400040F20040C4F202000121002201F030BF4B
:101750007047000070B5002856D04EF2180149F2CB
:101760004002CEF20001C0F2020210F0030EA0F11E
:10177000010C3BD051F8043C0D68002408E000BF88
:101780002C44A41BB54298BF1C44944235460DD24C
:101790000E68B542F4D10E68B542F1D10E68B5427B
:1017A000EED10E68B542F3D0EAE700BFBEF1010FFB
:1017B000634625D051F8043C0D68002408E000BFC2
:1017C0002C44A41BB54298BF1C449442354613D206
:1017D0000E68B542F4D10E68B542F1D10E68B5423B
:1017E000EED10E68B542F3D0EAE700BF03461FFA18
:1017F0008CF0032830D207E0BEF1020F06D1831E21
:101800001FFA8CF0032827D270BD00BF51F8043CAA
:101810000E68002408E000BF3444641BAE4298BF49
:101820001C4494422E460DD20D68AE42F4D10D6890
:10183000AE42F1D10D68AE42EED10D68AE42F3D0AA
:10184000EAE700BFC31E1FFA8CF0032804D2DBE7CF
:10185000043B180408BF70BD51F8040C0E68002446
:1018600008E000BF3444641BAE4298BF0444944275
:101870002E460DD20D68AE42F4D10D68AE42F1D1C4
:101880000D68AE42EED10D68AE42F3D0EAE700BF7C
:1018900051F8040C0E68002408E000BF3444641BB7
:1018A000AE4298BF044494422E460DD20D68AE421B
:1018B000F4D10D68AE42F1D10D68AE42EED10D68A3
:1018C000AE42F3D0EAE700BF51F8040C0E680024E2
:1018D00008E000BF3444641BAE4298BF0444944205
:1018E0002E460DD20D68AE42F4D10D68AE42F1D154
:1018F0000D68AE42EED10D68AE42F3D0EAE700BF0C
:1019000051F8040C0E6800240AE000BF3444641B44
:10191000AE4298BF044494422E46BFF499AF00BF34
:101920000D68AE42F2D10D68AE42EFD10D68AE4205
:10193000ECD10D68AE42F3D0E8E7000080B54EF27E
:101940001801CEF20001A82251F804CC00FB02FEDF
:10195000086800230AE000BF03449B1A904298BF26
:1019600063447345104628BF80BD00BF0A6890429B
:10197000F2D10A689042EFD10A689042ECD10A682D
:101980009042F3D0E8E7000010B5FFF7CFFEFFF775
:10199000DFFE06F0ADFD044606F0D2FE204310BD8A
:1019A0002DE9F04F83B002920E460190FFF7B6FE8C
:1019B000922000F0C5F8922000F0C2F8552000F007
:1019C000BFF88046552000F0BBF88346552000F054
:1019D000B7F88246552000F0B3F80446552000F0D1
:1019E000AFF80746552000F0ABF80546FFF78EFE2E
:1019F00048EA0B2040F2000900B2C2F2000900EEF2
:101A0000100A99ED001AB8EEC00A4AEA042021EE45
:101A1000000A00B286ED000A00EE100A47EA05202F
:101A200000B299ED001A02EE100AB8EEC00AB8EE44
:101A3000C22A21EE000A21EE021A86ED010A86ED85
:101A4000021AFFF77DFE802000F07AF8552000F0A2
:101A500077F80646552000F073F8552000F070F82E
:101A60008246552000F06CF80546552000F068F8D5
:101A70008346552000F064F80446552000F060F8D5
:101A80000746552000F05CF88046FFF751FE0F2E08
:101A900025D14AEA052000B200EE100A99ED011A9C
:101AA000B8EEC00A01994BEA042021EE000A00B208
:101AB00081ED000A00EE100A47EA082000B299ED15
:101AC000011A02EE100AB8EEC00AB8EEC22A21EEE0
:101AD000000A21EE021A81ED010A81ED021AFFF7D8
:101AE0001DFEA22000F02CF8A22000F029F85520BD
:101AF00000F026F80446552000F022F80546FFF7CE
:101B000005FEE00040EA55114FF600020023CFF633
:101B1000FF72B3EB902F18BF114300EE101AB8EE0E
:101B2000C00AB4EE001A20EE010AB3EE071A0298BA
:101B300030EE010A80ED000A03B0BDE8F08F00002E
:101B400080B582B08DF8070040F204604FF47A7CD3
:101B5000C2F200000DF107010DF106020123CDF8DC
:101B600000C002F01DFD9DF8060002B080BD00001F
:101B7000FEE7000040F2A040C2F2000000F00CBFFF
:101B8000B0B582B040F2B80CC2F2000C4FEA102E91
:101B90000CF808EF8CF80100080A8CF80200100A13
:101BA0004FF40074E6468CF80400180A4EF8204FF3
:101BB0008CF8060040F2A040002408258CF80310A1
:101BC0008CF805208CF80730C2F2000001AB71469A
:101BD0006246CCE90A44CCF8305000F07BFD02B0FC
:101BE000B0BD000040F25050C2F2000001F0E4B974
:101BF00040F2F040C2F2000001F0DEB97047000090
:101C000010B50120012401F0EDFB40F6F010C2F206
:101C10000000046010BD000080B5082001F0E2FB68
:101C2000BDE8804004F0B4BCEFF3108072B600BF92
:101C3000FEE7000090ED062A90ED071A90ED083AB5
:101C400090ED094A23EE020A21EE045A21EE021A0F
:101C500023EE043A33EE011A22EE022ABEEE003AD7
:101C600032EE032A24EE043A017835EE400A33EED0
:101C7000022A30EE000A31EE011A022932EE022A5F
:101C80000CD290ED0A3A90ED0B4A90ED0C5A33EEDF
:101C9000400A74EE410A35EE421A70470CD190EDBD
:101CA0000A3A90ED0B4A90ED0C5A30EE030A71EEB1
:101CB000040A32EE051A70479FED030AF0EE400A5F
:101CC000B0EE401A704700BF00000000183090ECE2
:101CD000040A70474AF6AB22C4F24A020021C263EA
:101CE0004FF07E52C0E9051201224FF6FF7380F8D3
:101CF000342000224FF07C5CC7F67F73C4F22012C0
:101D00000170C0E901C3C0E90333C0E90711C0E9AC
:101D10000911C0E90B11826380F8401080F85C1053
:101D2000C0E91111C0E91311C0E91511C0E918117A
:101D300080F86810C0E91B1170470000B0B52DEDA8
:101D4000028B0D4609780446017068689FED321ACF
:101D5000606095ED020A9FED318A20EE012AB5EE12
:101D6000400AF1EE10FA08BFB0EE482A95ED031ACA
:101D7000B0EE480AB5EE401AF1EE10FA84ED022AF0
:101D80000BD09FED270A21EE000A07F06BFFB6EE9D
:101D9000001A20EE010A20EE000A95ED041A84EDE7
:101DA000030AB5EE401AF1EE10FA0BD09FED1C0AB3
:101DB00021EE000A07F056FFB6EE001A20EE010AE7
:101DC00020EE008A95ED010A6869B5EE400AF1EE51
:101DD00010FA84ED048A60616066206701D068694A
:101DE00028B94FF6FF70C7F67F70C4E9030094F876
:101DF000340094ED010AB2EE041A002808BF84ED05
:101E00000E0A31EE400AB0EE081A80EE010A84EDA7
:101E10000F0ABDEC028BB0BD48E17A3FFFFF7F7F28
:101E200035FA8E3CB0B52DED088B84B090ED025A9A
:101E3000B0EEC06AB4EE456AF1EE10FAC0ED0A1ACF
:101E400080ED0B2AC0ED0C2A12DCB0EEE06AB4EE95
:101E5000456AF1EE10FA0BDCB0EEC16AB4EE456AE9
:101E6000F1EE10FA04DC90F8341071BB70E000BFA2
:101E7000D0E90813D0E906C2CDE902130023C4F269
:101E8000201383634369CDE900C200214366C0E9A2
:101E90001B13DDE90032DDE902E44FF0010C80F8AC
:101EA00034C00166C0E91111C0E91311C0E9151170
:101EB00080F85C1080F86810C0E90632C0E908E4D8
:101EC000C0E90A11016380F840C090ED0F6A90EDFF
:101ED0000E7A90ED015A26EE246A37EE466AB4EE89
:101EE000456AF1EE10FA4FF0000E80ED0E6A29DB24
:101EF000B5EE405AF1EE10FA24D003789FEDC35AA4
:101F0000022B2CD2D0ED065A90ED077AD0ED086A5C
:101F1000D0ED097A26EEA56A27EE278A27EE257AE4
:101F200066EEA76A36EE877A65EEA55AFEEE006A7F
:101F300075EEA65A67EEA76A38EE466A76EEA55A9F
:101F400034E000BF80ED0E5A80F834E080F840E0C5
:101F50004FF0010E03789FEDAD5A022BD2D3B0EEB5
:101F6000457AB0EE456AF0EE455A1FD1D0ED065ADB
:101F700090ED077AD0ED096AD0ED087A26EE876AEF
:101F800025EEA78A25EE877A67EEA67A37EE877A5E
:101F900065EEA55AF6EE007A77EEE55A66EEA66A89
:101FA00038EE466AB1EE477A75EEE65A41F2124CC7
:101FB000F5EE401AC5F61F7C0121F1EE10FA80F80B
:101FC0005C1010D1B5EE402AF1EE10FA0BD1F5EE0F
:101FD000402AF1EE10FAF0EE456AF0EE457AB0EEE6
:101FE000458A00F0B48061EEA16A62EE027A22EEC8
:101FF000A28A76EEA76A78EE267A17EE901ADFEDBF
:10200000ED6AACEB610108EE101A67EEA67A27EED6
:10201000889ADFEDE97A29EE089A39EE279A29EEB7
:10202000088A21EE889A22EE08AA62EE881A29EE22
:10203000062A6AEE072A21EEA58A32EE822A78EE77
:10204000022A27EE212A2AEE258A38EE422A25EE98
:10205000898A61EE861A71EEC81A26EE0A8A29EE7E
:10206000079AF5EE402AF1EE10FA79EE482A1FDAC7
:1020700022EE028A21EEA19A22EEA2AA38EE098A65
:102080003AEE088A18EE101AACEB610109EE101A4C
:1020900068EE266A66EE896A66EE896A76EEA76A57
:1020A00066EE896A22EE262A61EEA61A62EEA62A5A
:1020B000BEF1000F80ED112AC0ED121AC0ED132AF7
:1020C00028D062EE026A61EEA17A22EEA28A76EE52
:1020D000A76AD0ED037A78EE266AF4EE676AF1EE2D
:1020E00010FA17DD00210122D0E918452244AA4246
:1020F0001BDC4469F0EE456AA2424466B8BF144650
:10210000002A48BF0024F0EE457AB0EE458A046606
:10211000B9B91CE0002180F85C1001216FF00802C1
:10212000D0E918452244AA42E3DD4469002180F841
:102130005C10A242B8BF1446002A48BF0024C0E980
:102140001841F0EE626AF0EE617AB0EE428AB5EEC6
:10215000403A0121F1EE10FA80F868100ED1F5EE48
:10216000403AF1EE10FA09D1B5EE404AF1EE10FA1C
:10217000B0EE452AF0EE451A00F03781022B23D04D
:10218000012B45D0002B65D190ED062AD0ED071A22
:1021900090ED099A90ED08AA22EE095A61EE8A2A7A
:1021A00032EE855A62EE022ABEEE00BA72EE8B2A39
:1021B0002AEE0ABA21EE822A6AEE091A7BEE222A58
:1021C00031EEC22A4CE000BF90ED062AD0ED071A8E
:1021D00090ED099A90ED08AA22EE095A61EE8A2A3A
:1021E00032EE855A62EE022AB6EE00BA7BEE622A21
:1021F0002AEE0ABA29EE0A9A22EE212AB1EE455AAF
:1022000072EECB2A32EE492A2AE000BF000000001D
:1022100090ED062AD0ED071A90ED089A90ED09AAE4
:1022200022EE025AF6EE002A32EEC55A61EEA12ADB
:1022300035EE625A69EE212A22EE0ABA22EE092A06
:1022400061EE8A1A31EE822A7BEE622AB1EE422AD0
:1022500006E000BFDFEDAD2AB0EE625AB0EE622AB2
:1022600063EEA51A27EE049A24EE064A65EE835A19
:1022700079EE611A75EEC45A23EE073A26EE234A28
:1022800034EE436A21EEA13A25EEA54A26EE067AFF
:1022900034EE033A37EE034A14EE101A9FED9C3ADF
:1022A000ACEB610107EE101A24EE034A64EE073A24
:1022B0009FED984A63EE873A73EE843A23EE877A6D
:1022C00061EE873A65EE875A26EE076A23EE857A35
:1022D00065EEA21A26EE029A31EE877A39EE077A77
:1022E00062EE861A25EE829A22EE232A26EE056AEF
:1022F00036EE422A25EE255A23EEA26AB5EE407A42
:1023000079EE611AF1EE10FA36EE455A1FDA21EE37
:10231000A16A22EE027A65EE052A36EE076A32EEEF
:10232000866A16EE101AACEB610107EE101A26EE63
:10233000033A23EE073A23EE073A33EE043A23EE4C
:10234000073A61EE831A22EE032A25EE035ABEF104
:10235000000FC0ED141A80ED152A80ED165A2DD00D
:1023600021EEA13A22EE024A25EE056A33EE043A46
:1023700090ED044A36EE033AB4EE443AF1EE10FA28
:102380001CDD00210122D0E91B351A44AA4220DCC1
:1023900043699A420367B8BF1346002A48BF002327
:1023A000C36611BB9FED595AB0EE452AF0EE451AAF
:1023B0001BE000BF12D336BFFF51D83F002180F889
:1023C000681001216FF00802D0E91B351A44AA42B7
:1023D000DEDD4369002180F868109A42B8BF1346D9
:1023E000002A48BF0023C0E91B319FED4B3A90ED16
:1023F0000E6A20EE030A20EE834A21EE031A38EE1D
:10240000213A37EE822A36EE855A23EE063A22EE3C
:10241000062A25EE065A30EE030A34EE022A31EE81
:10242000051A90ED074A90ED085A20EE240A22EE94
:10243000242A90ED096A21EE241A90ED063A22EE44
:10244000057A64EE400A30EEC77A66EE010A37EE8E
:10245000607A65EE010A63EE001A71EEA00A66EE7C
:10246000021A70EEE10A61EE041A63EE022A24EE0B
:10247000022A23EE011A72EEE11A66EE002A31EE0C
:10248000021A25EE000A72EEA11A31EE400A33EE6E
:10249000071A34EE202A35EE213A22EE024A21EEC6
:1024A000015A36EE000A35EE044A23EE035A35EEA1
:1024B000044A20EE005A35EE044A14EE101A9FED3D
:1024C000145AACEB610106EE101A24EE054A24EE14
:1024D000064A9FED105A24EE064A34EE054A24EED1
:1024E000064A21EE041A22EE042A23EE043A20EED4
:1024F000040A80ED061A80ED072A80ED083A80ED87
:10250000090A04B0BDEC088BB0BD00BF000000009C
:1025100012D336BFFF51D83F35FA0E3C10B52DED22
:10252000048BF0EE434A9FED2F3A0446F0EE433A17
:10253000B0EE434AFFF776FC94F8340000284DD003
:1025400094ED060A94ED071A94ED082A94ED093AE1
:1025500021EE021A20EE030A30EE010A22EE021AE0
:10256000B6EE008A38EE411A23EE032A71EE420AD3
:1025700007F07AF920EE088AB0EE480A07F0CAFAA6
:10258000B0EE409AB0EE480A07F06CFB94ED061AE4
:1025900094ED094A94ED072A94ED083A29EE015A80
:1025A00020EE046A36EE055A29EE026A20EE037A1E
:1025B00029EE033A20EE022A33EE422A29EE043AAB
:1025C00020EE010A37EE066A33EE400A84ED065A21
:1025D00084ED076A84ED082A84ED090ABDEC048BBA
:1025E00010BD00BF0000000000EE101AB8EE400A57
:1025F000B7EE001A81EE000A9FED071A01EB810188
:102600000022C0E90112C0E90322426120EE010A62
:1026100080ED000A704700BFFDAD003E90ED032A3B
:1026200090ED043A30EE420A90ED054AB0EEC06AF1
:10263000B0EE085AB4EE456A70EEC30AF1EE10FA35
:1026400031EE441A2ADCB0EEE06AB4EE456AF1EEEF
:1026500010FA23DCB0EEC16AB4EE456AF1EE10FA6E
:102660001CDCD0E9012191423EBF013181607047FD
:1026700090ED005A20EE056A20EE857A21EE055A8B
:1026800032EE062A33EE073A34EE054A80ED032A8D
:1026900080ED043A80ED054A704700BF002181605B
:1026A0007047000090F82020013A012A08D80068FD
:1026B00000F114020020136819431160704700BF35
:1026C00000F1240201204FF48021136819431160A6
:1026D0007047000010B590F820E0D0F800C0AEF1CF
:1026E000010EBEF1010FDCF808E011D81EF0E05F2A
:1026F00018D0CEF3016EBEF1030F1DD100F12401FD
:1027000001204FF400020B681A430A6010BD00BF9D
:1027100000F1240101204FF480220B681A430A6063
:1027200010BD00BF00F1240101204FF400120B681E
:102730001A430A6010BD00BF012000FA0EF01860B5
:10274000886828B14B68CC6844EAC303034303E0BC
:102750000868CB6843EA40530CEB0E10C0F8803198
:102760000B69C0F88431097D012905D100F5C271DA
:102770000B6843F480730B605168C0F88C111268C9
:1027800000F5C071C0F88821002001220B681A43AF
:102790000A6010BDB0B590F82020013A012A2FD868
:1027A00046F20060C4F20000026842F001020260DA
:1027B000026822F47C520260D1F814E0CC694A6AC3
:1027C0000368012C43EA022202600EF01F024FF060
:1027D000010303FA02F2C3696FEA020C23EA02035F
:1027E000C36113D02CBBC36803EA0C03C360CB687E
:1027F0008C8844EA034300EBCE0423640B4611E0CB
:10280000416A41F4802141620120B0BDC368134395
:10281000C3600B688C8844EA034300EBCE04236456
:1028200001F10C038C681B8843EA044300EBCE04DF
:10283000636443688D6943EA0204D1F810E0096AD1
:10284000002D08BF03EA0C0444604369BEF1000F89
:1028500043EA020408BF03EA0C040129446102D1DF
:10286000C1691143C161016821F0010101600020CB
:10287000B0BD00007047000010B590F82040013C4A
:10288000012C71D8D0F800C0002977D0DCF81040B6
:10289000A40777D00CEB011CDCF8B0410CF5D87E16
:1028A00014F004049460DCF8B04119BFE4085460EB
:1028B000640D1460DEF80040002904F00204D460C6
:1028C000DCF8B44104F00F041461DCF8B441C4F343
:1028D00007249461DCF8B4414FEA14445461DCF8F5
:1028E000B8211A70026802EB0112D2F8B8214FEA3F
:1028F00012225A70026802EB0112D2F8B8214FEA94
:1029000012429A70026802EB0112D2F8B8214FEA23
:102910001262DA70026802EB0112D2F8BC211A715D
:10292000026802EB0112D2F8BC214FEA12225A715E
:10293000026802EB0112D2F8BC214FEA12429A71EE
:10294000026802EB0112D2F8BC214FEA1262DA717E
:10295000006814BF00F1100100F10C0100202022DA
:102960000B681A430A6010BD00F1240101204FF4E6
:1029700080220B681A430A6010BD00BFDCF80C40CF
:10298000A40787D100F1240101204FF400120B6845
:102990001A430A6010BD00002DE9F04F81B00446D3
:1029A00000684669D0F804908768D0F80CB0D0F879
:1029B00010A0D0F81880F10704D1002530071DD4ED
:1029C00024E000BFF90710D00121BA07816009D4C3
:1029D000780700F1AF80380700F1B680204600F09C
:1029E00083FA02E0204600F081FA0025F80500F1A4
:1029F0008780F80300F1B180300707D51BF0100085
:102A000004D0206845F400751021C160700708D516
:102A10001BF0080005D020680821C160204600F0A6
:102A2000FDF9B00706D52068C068800702D02046AF
:102A300000F0F6F9700607D51AF0100004D02068EF
:102A400045F4806510210161B00608D51AF0080030
:102A500005D0206808210161204600F011FAF00637
:102A600006D520680069800702D0204600F00AFAE7
:102A7000B00308D519F0100005D02068102141607E
:102A8000204600F001FAF00308D519F0080005D03F
:102A9000206808214160204600F032FA300440F1FD
:102AA0009B805FEA497040F1948006F4807008EAE8
:102AB000102028435FEA8871014648BF41F00201B7
:102AC000B20558BF01465FEA48700D4648BF45F061
:102AD0000405700558BF0D46300540F17A8018F0A6
:102AE000700000F076801038000905286CD8DFE807
:102AF00000F003595D61656945F0080564E000BFB9
:102B000020684FF48071BA0581600BD4780515D424
:102B100038051DD4204600F0EBF9F8037FF56CAFC3
:102B20001BE000BF204600F0E5F9F8037FF564AF35
:102B300013E000BF4FF4006558E700BF05F50055EE
:102B4000F8037FF559AF08E04FF480554EE700BF1A
:102B500005F58045F8037FF54FAF20684FF48031CD
:102B6000BA0381600AD4780310D4380314D4204601
:102B700000F0C2F930073FF541AF47E7204600F0CB
:102B8000BDF930073FF53AAF40E700BF05F5004516
:102B900030073FF533AF39E705F5803530073FF5AE
:102BA0002DAF33E745F010050EE000BF45F02005DE
:102BB0000AE000BF45F0400506E000BF45F0800593
:102BC00002E000BF45F480752068816921F0700142
:102BD000816120680421416055B1606A40EA0501C5
:102BE0002046616201B0BDE8F04FFFF743BE00BF71
:102BF00001B0BDE8F08F0000B0B5C8B1044690F850
:102C0000200010B9204600F071F82068016841F0FA
:102C10000101016000F0D2FC054600BF2068416858
:102C2000C90707D100F0CAFC401B0B28F6D312E0FD
:102C30000120B0BD016821F00201016000F0BEFC7E
:102C4000054600BF2068416889070DD500F0B6FC35
:102C5000401B0B28F6D3606A052140F40030606207
:102C6000012084F82010B0BD217E0268012922F0E5
:102C7000800208BF80320260617E0268012922F072
:102C8000400208BF40320260A17E0268012922F0A2
:102C9000200208BF20320260E17E0268012922F092
:102CA000100218BF10320260217F0268012922F051
:102CB000080208BF08320260617F0268012922F021
:102CC000040208BF04320260D4E901C2D4E903352A
:102CD00061691A432A431143ACF101021143C161F6
:102CE00000200121606284F82010B0BD80B586B05C
:102CF000006846F60002C4F2000200219042CDE9CD
:102D00000411CDE90211019146D046F20041C4F20E
:102D10000001884240F07F8040F26C21C2F2000145
:102D20000A6843F64000C4F20200531C0B6052B91B
:102D300000210091016841F000710160016801F01B
:102D40000071009100990021009150F8102C42F080
:102D5000080240F8102C50F8100C022200F0080075
:102D6000009000980320019004900920059040F203
:102D70000040C4F20200CDE9022100F5006001A983
:102D800000F03CFB14200021002201F053F8142035
:102D900001F03CF806B080BD43F64000C4F20200EA
:102DA0000091016841F080610160016801F080617B
:102DB0000091009940F26C21C2F200010A68531C94
:102DC0000B6052B900210091016841F0007101606F
:102DD000016801F00071009100990021009150F804
:102DE000102C42F0020240F8102C50F8100C00F0A9
:102DF000020000900098602001900220CDE90201BD
:102E0000032004900920059040F20040C4F2020023
:102E100001A900F0F3FA06B080BD00007047000081
:102E200080B58AB003AA01AB0021FFF725FD039806
:102E3000A0F20121062920D80138C1B2BDF8042032
:102E4000890051FA80F040F6080112BAC2F200017E
:102E5000120C31F8103021F8102001EB4000BDF8C1
:102E60000610BDF8082009BA090C418011BA9DF876
:102E70000A20090C0381818082710AB080BD0000A4
:102E8000704700007047000070470000B0B504466E
:102E900090F8200001281DD1022084F8200020682D
:102EA000016821F00101016000F088FB054600BFC8
:102EB00020684068C00713D000F080FB401B0B283F
:102EC000F6D3606A40F400306062052084F8200088
:102ED0000120B0BD606A40F4002060620120B0BDF6
:102EE00000206062B0BD0000704700007047000025
:102EF00070470000704700007047000070470000F6
:102F00007047000070B5866D044600F057FB94F8DA
:102F10003510022928D105462068216C026822F06C
:102F200016020260426922F08002426109B9A16C76
:102F300019B1016821F008010160016821F0010167
:102F4000016000BF20680068C00715D000F036FBA4
:102F5000401B0628F6D320206065032084F8350046
:102F6000002184F8341070BD8020606501200021AC
:102F700084F8341070BD00BFE06D3F2101FA00F00D
:102F8000B060012084F835000020002184F834105E
:102F900070BD000090F83510022909D1052180F894
:102FA00035100068016821F00101016000207047C0
:102FB0008021416501207047F0B581B004460020B2
:102FC000009040F25000C2F200000268D4E916609E
:102FD00048F2B51337680821C1F64E3381403942B3
:102FE000A2FB03250CD0226813685B0708D5136881
:102FF00023F004031360B160616D41F0010161656C
:1030000001218140394208D022685269120604D554
:10301000B160616D41F00201616504218140394276
:1030200008D022681268920704D5B160616D41F042
:103030000401616510218140394217D0206802687F
:10304000120713D5B16002680168520308D4C9059C
:1030500008D4016821F008010160216C21B905E064
:1030600008033FD4216C09B120468847E16D202038
:1030700000FA01F23A4241D020680368DB063DD5F0
:10308000B26094F835300268052B1BD122F016028D
:103090000260426922F080024261226C0AB9A26C8D
:1030A0001AB1026822F0080202603F208840B06036
:1030B000012084F83500216D0020002984F83400B7
:1030C00052D157E00168520310D4C90512D40168E7
:1030D00021F010010160012084F83500002084F8FF
:1030E000340007E0A16C0029BED1BFE7080301D47A
:1030F000616C00E0E16B09B120468847606DC8B3A0
:10310000606DC0072ED0052084F835002068A90A1C
:10311000026822F001020260009A01328A420092A3
:103120001AD80268D20717D0009A01328A42009258
:1031300012D80268D2070FD0009A01328A42009258
:103140000AD80268D20707D0009A01328A42009258
:1031500002D80268D207DFD1012084F835000020B0
:1031600084F83400E16C29B1204601B0BDE8F0409C
:10317000084700BF01B0F0BD2DE9F041044600F062
:103180001DFAECB10546022084F8350000202168C4
:1031900084F83400086820F001000860216808689D
:1031A000C00711D000F00AFA401B0528F6D9032504
:1031B00020230320636584F83550BDE8F08100BF0B
:1031C0000120BDE8F08100BF086848F23F02CFF25D
:1031D0001002D4E9013500EA020C04F10C0898E869
:1031E000C10143EA0C032B431843D4E9072E3043B3
:1031F00038431043626A40EA0E00042A40EA08039A
:103200001CD1206BD4E90A2E40EA0E001843086056
:103210004869BEF1000F20F0030040EA020040F0D0
:10322000040C11D0B8F5005F36D0B8F1000F45D1CD
:10323000022A46D0012A3BD032B942E00B604869ED
:1032400020F0070040EA020C01F0F8004AF6AB2239
:103250001038CAF6AA22A0FB02231A094AF6C42390
:10326000C0F600039A5C40F2FF335F284FF03F0046
:10327000C1F814C021EA030100FA02F088BF04314A
:10328000C4E916128860002301250020636584F8D4
:103290003550BDE8F08100BF032AD5D80125402371
:1032A0000120DFE802F0030E030500BF82E700BF44
:1032B000AEF1C070B0FA80F0400904E0032A04D3F4
:1032C000C2D1CEF300600028BED0012540230120EA
:1032D000636584F83550BDE8F081000070B590F862
:1032E00034C0BCF1010F46D04FF0010C80F834C05F
:1032F000D0F858E090F835C0BCF1010F38D14FF04C
:10330000020C80F835C04FF0000CC0F854C0D0F863
:1033100000C08468056CC06DDCF80060402C26F4A9
:103320008026CCF80060CCF804300B4604BF13466E
:103330000A463F2101FA00F0CCF80830CCF80C2006
:10334000CEF80800DCF8000040F01600CCF80000D1
:103350002DB1DCF8000040F00800CCF80000DCF8EB
:10336000000040F00100CCF80000002070BD00BF5C
:10337000002180F83410022070BD0000B0B5044672
:1033800000F01CF9054640F22000C2F2000000786F
:10339000611C18BF044400BF00F010F9401BA0429C
:1033A000FAD3B0BD10B5044600F030FE4DF683618F
:1033B000C4F21B31A0FB0101880C01F07DFA601EF4
:1033C000FFF7DCFF00F022FE44F6D351C1F26201A8
:1033D000A0FB01018809BDE8104001F06DBA0000B2
:1033E0007047000043F61441C4F201010A6802422A
:1033F00014BF08607047FFF7F3BF00002DE9F04FDE
:1034000082B000F13E4241F6004502F1FF77C4F27E
:103410000205082243F6004E4FEAB726A84208BF2D
:103420000722C4F2010E072E38BF4FEAB72201254A
:10343000002600274FF00008009208E008F101087C
:103440000437B8F1100F06F1020600F0A7800C68EF
:1034500005FA08F914EA090FF0D0D1F804B00322F4
:103460000BF0030CACF10104B240012C6FEA020A2C
:1034700010D88268CC6802EA0A02B4402243826013
:103480004268CBF3001422EA090204FA08F422434A
:10349000426005E0BCF1030F02D14FF0030C20E0C5
:1034A000C2688C6802EA0A02B4402243BCF1020FEF
:1034B000C26016D16FF0030202EA58020244D2F849
:1034C00020C007F01C050F230C69AB402CEA030356
:1034D00004FA05F52B431362D1F804B001250BF073
:1034E000030C02680CFA06F302EA0A021A431BF400
:1034F000403F0260A2D0002243F644030192C4F28E
:1035000002031A684FF6084C42F480421A601A68A7
:10351000CFF6FF7C02F480420192019A28F0030268
:10352000724452F80C3007F00C050F24AC40A34352
:10353000009C04FA05F52B4342F80C30DEF8082015
:103540004B6842EA090543F60C4CDC0258BF22EAFC
:103550000905CEF80850C4F2010CDCF800209C02EA
:1035600042EA090558BF22EA0905CCF80050DEF806
:1035700004209C0342EA090558BF22EA0905CEF857
:103580000450DEF80020DB0342EA090558BF22EAB6
:103590000905CEF80050012550E700BF02B0BDE894
:1035A000F08F00000069084018BF0120704700003C
:1035B000002A08BF090481617047000040F6F82026
:1035C000C2F200000068704770B5B8B3044690F8C6
:1035D0003D0028B9002084F83C00204600F056FB4E
:1035E000242084F83D002068016821F00101016079
:1035F000016841F400410160016821F4004101606B
:1036000000F00AFD48F28041C0F21E0140F60013AE
:10361000D4F804E088424FF00001C0F23D0348F2C4
:10362000A16C4FF0000238BF01219842C0F2010C9A
:1036300038BF0122E64538BF0A460AB1012070BDF5
:103640004DF68361C4F21B31A0FB01122168950C79
:103650004B684FF4967623F03F0343EA9243754359
:1036600044F6D3564B60C1F262060B6AA5FB0656C0
:10367000B50923F03F03E64538BF950C6A1C1A4391
:103680000A62CA6948F2A0664CF6FF73C0F20106EE
:10369000B64522EA03020BD801384FEA4E03B0FBCD
:1036A000F3F001306FF31F30042898BF04201EE0B0
:1036B000A368013863B119230EFB03F3B0FBF3F0E9
:1036C00001306FF31F3078B100F5804008E000BF93
:1036D0000EEB4E03B0FBF3F001306FF31F3028B157
:1036E00000F5004003E000BF012000E0012010438E
:1036F000C8610868D4E9072320F0C00010431843CC
:103700000860886848F2FF3204F10C0690434CCE02
:1037100018431043A5698860C86820F0FF00304353
:103720002843C860086840F001000860002020219C
:10373000206484F83D10206384F83E0070BD0000D2
:103740002DE9F04784B0984617460E460446FFF729
:1037500035FF94F83D10202923D105462068816962
:10376000890719D5FFF72AFF401B1928F6D9002031
:103770002021206384F83D1084F83E00206C04F181
:103780003C0940F0200020640220002189F800104C
:1037900004B0BDE8F08700BFA14619F83C1F01291D
:1037A00004D1022004B0BDE8F08700BF012289F8EF
:1037B00000200368DDE90D1A0C9ADB0703D10368CA
:1037C00043F001030360036823F4006303602220D5
:1037D00084F83D00402084F83E00002020646262AE
:1037E0006185608D314620850020CFF6FF70E06254
:1037F00020463A464346CDF800A0019502F012FA61
:1038000020B1012004B0BDE8F08700BF208DA8B131
:1038100002282BD0012835D121680A6822F4806261
:103820000A60002203924A6903928A690392039A0A
:103830000A6842F400720A602CE000BF0020039086
:10384000206841690391816903910399016841F4FA
:1038500000710160202084F83D00002084F83E00C3
:10386000002189F8001004B0BDE8F08721680A68DB
:1038700022F480620A600A6842F400620A60002250
:10388000039202E00021039121684A690392896949
:10389000039103990AF1010680B2032818D802287F
:1038A00042D0012856D1BAF1000F00F0AB80206859
:1038B000014651F8142F520600F1A8800868C0068E
:1038C00000F1E280FFF77AFE401B5045EFD9D0E0CF
:1038D000BAF1000F10D000BF2068014651F8142F34
:1038E00052060ED40868C00600F1CE80FFF766FECF
:1038F000401B5045F0D9BCE020684169490640F1C1
:10390000B1800069616A0870606A2268411C208D7C
:10391000616201382085638D013B638553695B07D4
:1039200040F18080106973E020684169490747D4FD
:10393000002E59D0BAF1000F00F09980FFF73EFE3B
:10394000401B504500F29580206841694907F5D534
:1039500036E000BF2068416949070FD4002E65D0CA
:10396000BAF1000F00F08380FFF728FE401B50459E
:1039700000F27F80206841694907F5D5016821F48C
:10398000806101600069616A0870606A218D0130A0
:103990000139606221852068618D01396185416945
:1039A00049070DD4002E4FD0BAF1000F5FD0FFF7BA
:1039B00005FE401B50455CD8206841694907F6D593
:1039C000016841F4007101600069616A0870606A11
:1039D0002268411C6162218D01392185618D013987
:1039E00061851169417014E041694907E8D4416972
:1039F00049075CBF41695FEA4171E1D44169490708
:103A0000F2D5DDE72068416949062BD50069616A76
:103A10000870606A218D01306062481E2085618DCA
:103A20000139618501047FF437AF13E74169490724
:103A3000A4D4416949075CBF41695FEA41719DD4E3
:103A400041694907F2D599E741694907B8D4416905
:103A500049075CBF41695FEA4171B1D441694907D7
:103A6000F2D5ADE750F8141FC90601460CD4FFF794
:103A7000A5FD00202021206384F83D1084F83E003D
:103A8000206C40F020000AE06FF010000860002079
:103A90002021206384F83D1084F83E00206C2064CF
:103AA0000120002189F8001004B0BDE8F087000073
:103AB0002DE9F04383B0994616460F460446FFF7BA
:103AC0007DFD94F83D1020291CD1054620688169B0
:103AD000890713D5FFF772FD401B1928F6D900207E
:103AE0002021206384F83D1084F83E00216C41F0D1
:103AF0002001216484F83C0004E000BF94F83C10ED
:103B0000012903D1022003B0BDE8F083012284F82B
:103B10003C200368DDE90B180A9ADB0703D1036830
:103B200043F001030360036823F400630360212072
:103B300084F83D00402084F83E000020206462624A
:103B40006185608D394620850020CFF6FF70E062E8
:103B5000204632464B46CDF80080019502F0F2F93E
:103B600020B1012003B0BDE8F08300BF208D002804
:103B700050D0206808F10106014651F8142F1206B2
:103B80002CD49EB1B8F1000F5AD000BF0868400590
:103B90005ED4FFF713FD401B404556D82068014610
:103BA00051F8142F1206F1D518E000BF0A6852052B
:103BB0004ED40A68120611D40A68520548D40A681D
:103BC00012060BD40A68520542D40A68120605D4BC
:103BD0000A6852053CD40A681206E7D5626A1146A3
:103BE00011F8013B0361238D6162591E2185678DA8
:103BF000013F678547697F070AD50F0408D05178D0
:103C00000161911C6162991E2185628D013A628574
:103C10000904B1D1204641462A4602F0CDFA38BB0C
:103C20002068016841F400710160202084F83D00A3
:103C3000002084F83E0084F83C0003B0BDE8F08327
:103C40000868400504D4FFF7B9FC202004E000BF59
:103C50006FF480600860042000212022216384F832
:103C60003D2084F83E10226C1043206484F83C1000
:103C7000206C04287FF475AF2068016841F400715E
:103C80000160012003B0BDE8F08300002DE9F0479A
:103C900086B0006845F60047C4F20007B84203D07A
:103CA00006B0BDE8F08700BF002643F63005019658
:103CB000C4F20205286801AC40F0040028602868BE
:103CC0004FF0120800F00400019001980196286856
:103CD0004FF0030940F00100286028684FF0040A03
:103CE00000F00100019001984FF40070019007F579
:103CF000D6302146CDE90286CDF81090CDF814A03B
:103D0000FFF77CFB4FF48070CDE9010803A880E841
:103D1000400607F5D2302146FFF770FB0096286970
:103D200040F400002861286900F400000090009829
:103D300006B0BDE8F087000040F2200040F6F82110
:103D4000C2F20000C2F2000100780A681044086064
:103D50007047000080B543F60040C4F202000168DD
:103D600041F400710160016841F480610160016803
:103D700041F480710160032000F088F80F2000F00A
:103D800005F800F027F8002080BD000070B540F273
:103D90002006C2F2000640F250013278C2F2000161
:103DA0004FF47A730968B3FBF2F20446B1FBF2F107
:103DB000084600F081FD0F2C4FF0010508D838B9F6
:103DC0004FF0FF3021460022002500F033F87460E8
:103DD000284670BD82B0002043F640010190C4F235
:103DE00002014A6842F480424A604A6802F4804212
:103DF0000192019A0090086840F0805008600868BD
:103E000000F080500090009802B07047002848BF32
:103E10007047C1B200F01F00012202FA00F04EF21A
:103E20000012CEF2000242EAD10121F00301086043
:103E30007047000010B54EF60C5CCEF2000CDCF8BA
:103E40000030C3F3022E8EF00704042C28BF042494
:103E5000BEF103034FF0FF3E0EFA04F438BF002317
:103E6000A14399400EFA03F39A43114300F00F0265
:103E700000F160430901043A03F5644362440028F9
:103E800048BF02F10C03197010BD00004EF60C5132
:103E9000CEF200010A684FF6FF031A4060F30A22CF
:103EA00042F0806040F0FD70086070472DE9F041FD
:103EB000002800F08B8043F60808C4F2020804468C
:103EC000D8F8F8030D4600F00700884207D288F8BA
:103ED000F853D8F8F80300F00700A84276D120681C
:103EE000810717D5410705D5D8F8001041F4E051F6
:103EF000C8F80010010705D5D8F8001041F460415A
:103F0000C8F80010D8F80010A26821F0F0011143A1
:103F1000C8F80010C0073FD1D8F8F80300F0070038
:103F2000A84207D988F8F853D8F8F80300F007003A
:103F3000A8424BD12068410707D5D8F80010E268A5
:103F400021F4E0511143C8F80010000708D5D8F853
:103F50000000216920F4604040EAC100C8F8000078
:103F600000F082F8D8F800104AF6AC22C1F3031131
:103F7000C0F60002515C40F2500220FA01F140F21A
:103F80002400C2F200000068C2F200021160FFF7D4
:103F9000FDFE0020BDE8F0816068811E022907D285
:103FA00058F8081C89015CBF0120BDE8F08111E0D0
:103FB000012807D158F8081C89035CBF0120BDE81F
:103FC000F08107E058F8081C890703D40120BDE8F8
:103FD000F08100BFD8F8001021F003010843C8F8B1
:103FE0000000FFF7EBFA064641F28837D8F80000E8
:103FF000616800F00C00B0EB810F8DD0FFF7DEFAA6
:10400000801BB842F2D90320BDE8F08140F2500095
:10401000C2F200000068704740F2500043F6080109
:10402000C2F20000C4F20201006809684AF6BC222C
:10403000C1F38221C0F60002515CC8407047000005
:1040400040F2500043F60801C2F20000C4F202013F
:10405000006809684AF6BC22C1F34231C0F600028A
:10406000515CC8407047000010B543F60404C4F228
:104070000204606800F00C0008280BD0042819BF67
:1040800042F20040C0F2F40041F60030C0F2B70046
:1040900010BD00BF206821682368490241F6003145
:1040A000C0F2B70100F03F02C3F388105CBF42F2D8
:1040B0000041C0F2F401A1FB00010023FCF72AF942
:1040C00021680222C1F3014102EB4101B0FBF1F092
:1040D00010BD00002DE9F04182B0002868D00446F0
:1040E000007843F60006C007C4F202060BD0B068A1
:1040F00000F00C00042840F09F803068800302D557
:104100006068002854D0207880071AD5B06810F075
:104110000C0F09D0B06800F00C00082840F0A68011
:104120007068400200F1A2803068800702D5E06824
:1041300001283DD13068216920F0F80040EAC10033
:1041400030602078000737D4207840074CD4A56928
:1041500055B3B06800F00C00082840F0BB80012D7A
:1041600026D07068E16900F480028A4220D1216A79
:1041700000F03F028A421BD147F6C071626A0140DB
:10418000B1EB821F14D1A16A4FF6FF73C9039943A3
:1041900000F44032A1F580318A4209D1E16A00F091
:1041A0007060B0EB016F03D1002002B0BDE8F08178
:1041B000012002B0BDE8F0816069002840F20000F3
:1041C000C4F2472076D00121C0F8801EFFF7F6F92F
:1041D000054600BF706F8007B6D4FFF7EFF9401BAC
:1041E0000228F7D9DDE000BF306C10F080580AD10A
:1041F00000200190306C40F080503064306C00F052
:1042000080500190019847F20007C4F20007386817
:10421000C00541D4386840F480703860FFF7CEF9AB
:10422000054600BF3868C00536D4FFF7C7F9401B04
:104230000228F7D9B5E000BFB06800F00C000828EC
:1042400003D1706840023FF558AF6068B0F5803F19
:1042500007D0B0F5A02F40F08D80306840F480206A
:104260003060306840F4803030608DE0E0680028D5
:1042700052D00020C4F2472001210160FFF79EF9CF
:10428000054600BF306880073FF554AFFFF796F949
:10429000401B0228F6D984E0A068012805D0052833
:1042A0004ED1306F40F004003067306F40F00100B5
:1042B00030674FE00021C0F8801EFFF77FF9054608
:1042C000706F80077FF540AFFFF778F9401B022839
:1042D000F6D966E00027C4F2472700203866FFF7CA
:1042E0006DF9022D05460BD1306880015ED5FFF7D0
:1042F00065F9401B02284FF00300F5D955E700BFD0
:10430000306880017FF550AFFFF758F9401B022855
:104310004FF00300F4D948E70020C4F24720002101
:104320000160FFF74BF90546306880077FF509AF5C
:10433000FFF744F9401B02284FF00300F4D934E79B
:10434000316F002821F001013167316F21F0040144
:1043500031674DD0FFF732F9054641F2883700BF8B
:10436000306F800756D4FFF729F9401BB842F7D9C0
:1043700017E000BF3168002821F4803131603168D6
:1043800021F4802131604FD0FFF718F9054600BFB6
:10439000306880033FF5B7AEFFF710F9401B642883
:1043A000F6D9032002B0BDE8F08100BF04F11C057E
:1043B0002FCD084340EA8210D9034FF6FF72914394
:1043C000A1F5803140EA056008437060012038663D
:1043D000FFF7F4F8044600BF306880013FF5E4AE13
:1043E000FFF7ECF8001B02284FF00300F4D9DCE6DD
:1043F000FFF7E4F8054641F2883700BF306F8007C9
:1044000008D5FFF7DBF8401BB8424FF00300F5D9A1
:10441000CBE600BFB8F1000F7FF499AE306C20F00E
:104420008050306493E600BFFFF7C8F8054600BF30
:10443000306880037FF567AEFFF7C0F8401B642843
:104440004FF00300F4D9B0E670B538B10446406AC5
:1044500030B10020206104F1140007E0012070BD9C
:104460006068B0F5827F03D004F11C000021016078
:104470000026A66294F8510020B9204684F85060C6
:1044800000F03CF8022084F8510094E80F0001F499
:104490008271056802F4044225F04005056011446C
:1044A00003F400622369114403F0020263691144BA
:1044B00003F00102A369E569114403F40072114499
:1044C00005F03802256A114405F08002A56A1143FF
:1044D00005F4005211430160626A042101EA1341AC
:1044E00002F0100211444160C16921F40061C16110
:1044F0000120666584F85100304670BD2DE9F04317
:1045000085B0006843F20005C4F20105A84203D05B
:1045100005B0BDE8F08300BF002643F630000096EA
:10452000C4F2020041696C4641F480514161416925
:104530004FF0020801F48051009100990096016843
:104540004FF0030941F0020101600168052701F005
:104550000201009100990096016841F0010101609B
:104560000068214600F0010000900098182000909B
:1045700005F55440CDE90186CDF80C900497FEF77F
:104580003DFF8020CDE9000805F550402146CDE9EA
:1045900002690497FEF732FF05B0BDE8F083000022
:1045A0002DE9F04383B0044690F85000012803D170
:1045B000022003B0BDE8F08301201E4615460F46D9
:1045C00084F85000FEF7FAFF94F851108146012953
:1045D00040F09880002F4FF0010018BF002D00F030
:1045E0009E80002E00F09B8094F85100002104284A
:1045F0001CBF052084F851006165A563E687A68786
:104600002763E6862068A6862164616401684906FE
:1046100003D4016841F0400101606168731EE268E3
:10462000B1FA81F1B3FA83F3DDF8288049095B0917
:10463000B2F5006F41EA03017AD131B137F8021BBC
:10464000C1602763E08E0138E086012518F1010082
:1046500031D101E0FEF7B2FFE08E18B9E08F0028FB
:1046600000F0D0802068816889070CD5E18E51B1B7
:10467000012D08D1216B002531F8022BC260216386
:10468000E18E0139E1868168C907E3D0E18F002915
:10469000E0D0C068A16B012521F8020BA163E08F77
:1046A0000138E087D6E700BFFEF788FFA0EB0900DE
:1046B000404580F0FD80E08E18B9E08F002800F0C2
:1046C000A1802068816889070CD5E18E51B1012D48
:1046D00008D1216B002531F8022BC2602163E18EE5
:1046E0000139E1868168C907DED0E18F0029DBD07E
:1046F000C068A16B012521F8020BA163E08F01388E
:10470000E087D1E76068B0F5827F07D1A068002814
:104710004FF0020008BF042901D15BE7022001210C
:1047200084F85110002184F8501003B0BDE8F083E4
:1047300039B139780173206B01302063E08E013884
:10474000E086012518F1010033D101E0FEF736FFC4
:10475000E08E10B9E08F002854D020688168890766
:104760000ED5E18E61B1012D0AD1216B00250978AA
:104770000173216B206801312163E18E0139E186EB
:104780008168C907E2D0E18F0029DFD0C068A16B42
:1047900001250870A06B0130A063E08F0138E0872D
:1047A000D4E700BFFEF70AFFA0EB0900404580F008
:1047B0008180E08E08B9E08F20B320688168890786
:1047C0000ED5E18E61B1012D0AD1216B002509784A
:1047D0000173216B206801312163E18E0139E1868B
:1047E0008168C907DED0E18F0029DBD0C068A16BEA
:1047F00001250870A06B0130A063E08F0138E087CD
:10480000D0E700BF40F25000C2F20000006849F655
:104810008171C1F25E61A0FB0101480D4FF47A7114
:10482000484302906068B0F5827F0FD12046802116
:1048300042464B4602F0D2FF60B3606D40F020006C
:10484000606520206065012069E700BF029808B319
:104850000298013802902068806800061AD50298F4
:10486000C0B102980138029020688068000611D516
:10487000029878B10298013802902068806800069A
:1048800008D5029830B102980138029020688068FB
:104890000006DBD4A06800284FF000007FF43FAF93
:1048A00001902168CA68019289680191019936E7EF
:1048B000032034E7032032E7411E0020B0EB116FE4
:1048C0001CBF012070474EF21002CEF20002516070
:1048D0004EF62351CEF20001F0230B7007219060B9
:1048E00011607047704700007047000010B590F8E5
:1048F0003C20012A4FF0020251D080F83D2002688E
:10490000D2F804E0D2F808C00C682EF070032343FC
:1049100041F2FF74C4F20004A24253600EDC40F284
:10492000FF73C4F200039A4216DCB2F1804F2BD021
:1049300040F20043C4F2000324E000BF40F2FF3322
:10494000C4F201039A4213DC41F60003C4F20003EF
:104950009A4219D0002313E040F60003C4F200038A
:104960009A4211D040F60043C4F200030AE000BFAF
:1049700044F20003C4F201039A4205D040F200431E
:10498000C4F201039A4204D149682CF08003194310
:1049900091600121002280F83D1080F83C201046F3
:1049A00010BD0000002804BF0120704710B5044668
:1049B00090F83D0028B9002084F83C00204600F023
:1049C0001FF8022084F83D002068211D03F0B6F88E
:1049D000012084F8460084F83E0084F83F0084F803
:1049E000400084F8410084F8420084F8430084F8D1
:1049F000440084F8450084F83D00002010BD00000C
:104A000080B582B000684FF6FF71C4F200018842A1
:104A10001EDD44F20041C4F20101884238D040F268
:104A20000041C4F2010188424CD00021C4F20101CE
:104A300088422BD10020019043F64400C4F20200CA
:104A4000016841F001010160006800F001002CE004
:104A500040F60001C4F2000188424DD040F600410A
:104A6000C4F20001884211D10020019043F64400B5
:104A7000C4F2020050F8041C41F0080140F8041C84
:104A800050F8040C00F008000190019802B080BDBD
:104A90000020019043F64400C4F20200016841F492
:104AA00000310160006800F4003001900198192085
:104AB00000210022FFF7BEF9192002B0BDE88040B6
:104AC000FFF7A4B90020019043F64400C4F20200AD
:104AD0000168002241F0020101600068002100F03D
:104AE0000200019001982C20FFF7A4F92C2002B0BD
:104AF000BDE88040FFF78AB90020019043F64400EA
:104B0000C4F2020050F8041C002241F0040140F8F5
:104B1000041C50F8040C002100F0040001900198DE
:104B20001E20FFF787F91E2002B0BDE88040FFF786
:104B30006DB9000090F83D1001291CBF012070479D
:104B4000022180F83D10006841F2FF72C168C4F292
:104B50000002904241F00101C1600DDC40F2FF71A2
:104B6000C4F20001884215DCB0F1804F2AD040F237
:104B70000041C4F2000123E040F2FF31C4F2010120
:104B8000884213DC41F60001C4F20001884219D0CA
:104B9000002113E040F60001C4F20001884211D068
:104BA00040F60041C4F200010AE000BF44F20001F7
:104BB000C4F20101884205D040F20041C4F2010173
:104BC000884206D1816801F00701062904BF002050
:104BD0007047016841F0010101600020704700004A
:104BE00080B590F83C20012A4FF0020200F0C2800C
:104BF00080F83D20D0F800C04FF67772DCF808301E
:104C000023EA0202CCF808200B684F2B28DC1F2B6C
:104C100044DD202B45D0302B43D0402B40F0AC80DE
:104C2000D1F804E0C968DCF82030DCF8202022F05C
:104C30000102CCF82020DCF8182022F0F00242EA31
:104C4000011123F00A0242EA0E02CCF81810CCF847
:104C50002020DCF8081041F0470121F0300180E00D
:104C60006F2B27DDB3F5005F48D0B3F5805F7AD0B6
:104C7000702B40F08180D1E901E3C968DCF808209D
:104C800043EA0E0322F47F4243EA01211143CCF8A8
:104C90000810DCF8081041F0770162E00BB1102B2E
:104CA0006AD1DCF8081021F07001194341F00701C6
:104CB00057E000BF502B35D0602B5DD1D1F804E018
:104CC000C968DCF8203023F01003CCF82030DCF881
:104CD0001830DCF8202023F4704322F0A00243EACD
:104CE000013142EA0E12CCF81810CCF82020DCF882
:104CF000081041F0670121F0100132E0D1E901E331
:104D0000C968DCF8082043EA0E0322F47F4243EA34
:104D100001211143CCF80810DCF8081041F480415F
:104D20001FE000BFD1F804E0C968DCF82030DCF8EF
:104D3000202022F00102CCF82020DCF8182022F0FC
:104D4000F00242EA011123F00A0242EA0E02CCF814
:104D50001810CCF82020DCF8081041F0570121F0A1
:104D60002001CCF808100022012180F83D1000211C
:104D700080F83C10104680BD0122F5E77047000026
:104D800010B5016804460869800744BFC8685FEA37
:104D9000807039D40869400744BFC8685FEA407032
:104DA0003ED40869000744BFC8685FEA007045D474
:104DB0000869C00644BFC8685FEAC0604AD4086991
:104DC000C0071CBFC8685FEAC07051D108690006FF
:104DD00044BFC8685FEA006052D40869400644BF17
:104DE000C8685FEA406053D40869800646BFC86857
:104DF0005FEA806010BD6FF0200220460A61BDE8C6
:104E00001040FFF771BD00BF6FF002000861012084
:104E100020778869800743D02046FFF7AFFF45E041
:104E20006FF00400086102202077886910F4407F49
:104E300040D02046FFF7A2FF42E000BF6FF008001D
:104E4000086104202077C86980073DD02046FFF71D
:104E500095FF3FE06FF01000086108202077C869D7
:104E600010F4407F3AD02046FFF788FF3CE000BFB7
:104E70006FF001000861204600F00AFA2168A5E7FA
:104E80006FF0800008612046FFF72CFD2168A4E741
:104E90006FF040000861204600F0FCF92168A3E7AC
:104EA000204600F025F8204600F066F92168002031
:104EB00020776FE7204600F01BF8204600F05CF9F1
:104EC0002168002020776CE7204600F011F820468A
:104ED00000F052F921680020207769E7204600F0B1
:104EE00007F8204600F048F921680020207766E79F
:104EF000704700002DE9F04390F83C30012B04BFCF
:104F00000220BDE8F0834FEAB202032A00F2FC80DF
:104F1000DFE802F0023E7EBE036840F200471A6AF4
:104F200043F4806522F001021A621C6A1A46D3F823
:104F300004E052F818CF8E6824F00204C4F201078E
:104F4000BD4244EA060405D1CE6824F00C0426F0E4
:104F5000040634430E68BD4207D1D1E905572EF44B
:104F6000407E45EA0E0545EA070E2CF073073743ED
:104F7000C3F804E09F614F6809695F631C629F6921
:104F800047F008079F619F6927F004079F61B1E020
:104F9000036840F200481A6A43F4806522F0100268
:104FA0001A621C6A1A46D3F804C052F818EF8F68C8
:104FB00024F02004C4F20108454544EA071407D14F
:104FC000CF686FF0400624F0C00406EA07163443A9
:104FD000D1F80090454506D1D1E905562CF440673B
:104FE0002E4347EA860C2EF4E64747EA0927C3F822
:104FF00004C09F614F6809699F631C629F6947F401
:1050000000679F619F6927F480679F6171E000BF1F
:10501000036840F200481A6A43F4806522F4807203
:105020001A621C6A1A46D3F804C052F81CEF8F6843
:1050300024F40074C4F20108454544EA072408D169
:10504000CF6840F2FF463F0224F4406427EA060698
:105050003443D1F80090454506D1D1E905562CF4EA
:1050600040572E4347EA061C2EF0730747EA09070C
:10507000C3F804C0DF614F680969DF631C62DF6940
:1050800047F00807DF61DF6927F00407DF6131E0DF
:10509000036840F200451A6A43F4806722F48052A4
:1050A0001A621A46D3F820C05C6852F81CEFD1F897
:1050B00000808E68C4F20105AF4204D14D6924F42A
:1050C000804444EA85142CF4005747EA06372EF44E
:1050D000E64646EA08265C60DE614E6809691E64A1
:1050E0001F62DF6947F40067DF61DF6927F48067CB
:1050F000DF6109021368194311600021002280F862
:105100003C200846BDE8F0830121002280F83C20C5
:105110000846BDE8F0830000002804BF0120704766
:1051200010B5044690F83D0028B9002084F83C00F2
:10513000204600F01FF8022084F83D002068211D61
:1051400002F0FCFC012084F8460084F83E0084F85C
:105150003F0084F8400084F8410084F8420084F85D
:10516000430084F8440084F8450084F83D000020A2
:1051700010BD0000704700007047000041B10829D1
:1051800010D0042914BF00F1410200F13F020BE0EE
:1051900090F83E20012A1CBF01207047022280F8AF
:1051A0003E2013E000F140021278012A1CBF0120CA
:1051B00070470222082907D0042914BF80F8412033
:1051C00080F83F2002E000BF80F84020006801F036
:1051D0001F010122036A02FA01F123EA01020262BD
:1051E000026A114341F2FF72C4F20002904201626E
:1051F0000CDC40F2FF71C4F20001884214DCB0F113
:10520000804F37D040F2004116E000BF40F2FF313E
:10521000C4F20101884215DC41F60001C4F200012C
:10522000884227D0002115E040F60001C4F20001B9
:1052300088421FD040F60041C4F20001884219D0D4
:105240001FE000BF44F20001C4F20101884211D006
:1052500040F20041C4F20101884212D1416C40F297
:10526000004340F48062C4F2010341F400419A42D9
:10527000416406D1816801F00701062904BF0020BE
:105280007047016841F00101016000207047000093
:105290007047000070470000704700007047000032
:1052A000B0B582B0044600680168C368426901F085
:1052B0002F05202D03F0200506D12DB1204602B088
:1052C000BDE8B04002F08ABE5FEA017C1EBF02F07A
:1052D000010E03F4907212EB0E0253D1226B012ADD
:1052E00005D111F0100218BF13F0100236D10A06D2
:1052F00022D513F080021FD094F83D1021293FD110
:10530000A168B1F5805F03D12169002900F07282A4
:10531000216A4A1C226209784160E18C01390A0441
:10532000E1842DD1C16821F08001C160C16841F0E4
:105330004001C16002B0B0BD490621D513F0400163
:105340001ED0C16821F04001C1602021204684F8B0
:105350003D1002B0BDE8B04000F05EBC00210191FC
:10536000016801914168019101994069400613D497
:10537000A08DE18DE28D002A18BF884240F0BE81E9
:1053800002B0B0BDCA0718BF13F4807240F0BA80F3
:105390004A0700F1BD80C2E0A16B0868426893B281
:1053A000002BEDD0A08D8342EAD2E285C969B1F528
:1053B000807F00F09D80206850E8030F216820F472
:1053C000807041E80302DAB1206850E8030F2168D9
:1053D00020F4807041E8030292B1206850E8030F86
:1053E000216820F4807041E803024AB1206850E847
:1053F000030F216820F4807041E80302002ADAD10B
:10540000206850E8050F216820F0010041E80502FE
:10541000DAB1206850E8050F216820F0010041E86A
:10542000050292B1206850E8050F216820F00100C4
:1054300041E805024AB1206850E8050F216820F0D4
:10544000010041E80502002ADAD1206850E8050F82
:10545000216820F0400041E80502DAB1206850E8F8
:10546000050F216820F0400041E8050292B1206854
:1054700050E8050F216820F0400041E805024AB1DC
:10548000206850E8050F216820F0400041E805023F
:10549000002ADAD1202084F83E0000202063206812
:1054A00050E8030F216820F0100041E80302DAB150
:1054B000206850E8030F216820F0100041E8030243
:1054C00092B1206850E8030F216820F0100041E8F5
:1054D00003024AB1206850E8030F216820F0100051
:1054E00041E80302002ADAD1A06BFDF70BFDA08D85
:1054F000E18D401A81B2204602B0BDE8B040FFF70E
:10550000CBBE00BF226C42F0010222644A0706D5DE
:10551000BEF1000F03D0226C42F0020222648A071F
:1055200006D5BEF1000F03D0226C42F004022264C3
:10553000BCF1000F09D545EA0E02B2FA82F2520917
:1055400003D1226C42F008022264226C002A3FF44C
:1055500017AF11F0200118BF002D03D0204602F034
:105560003DFD20684069216C00F0400001F0080119
:10557000401800F0B58000BF206850E8030F216894
:1055800020F4907041E80302BAB3206850E8030F9A
:10559000216820F4907041E8030272B3206850E85B
:1055A000030F216820F4907041E803022AB32068B9
:1055B00050E8030F216820F4907041E80302002AAC
:1055C000DAD11AE0206850E8050F216820F00100C8
:1055D00041E80502DAB1206850E8050F216820F0A3
:1055E000010041E8050292B1206850E8050F2168EA
:1055F00020F0010041E805024AB1206850E8050F9B
:10560000216820F0010041E80502002ADAD1206B70
:10561000012824D1206850E8030F216820F01000F1
:1056200041E80302DAB1206850E8030F216820F056
:10563000100041E8030292B1206850E8030F21688E
:1056400020F0100041E803024AB1206850E8030F3F
:10565000216820F0100041E80302002ADAD120205E
:1056600084F83E00002020632068406940063FD552
:10567000206850E8050F216820F0400041E805024D
:10568000DAB1206850E8050F216820F0400041E8B9
:10569000050292B1206850E8050F216820F0400013
:1056A00041E805024AB1206850E8050F216820F062
:1056B000400041E80502002ADAD1A06BC0B147F6EC
:1056C0009D51C0F600010165FDF764FC00283FF420
:1056D00057AEA06B016D02B0BDE8B040084700BFF7
:1056E0002046FFF7DBFD0020206402B0B0BD00BF04
:1056F000204602B0BDE8B040FFF7D0BD401A216897
:1057000051E8031F226821F4907142E80313DBB1D2
:10571000216851E8031F226821F4907142E80313C5
:1057200093B1216851E8031F226821F4907142E887
:1057300003134BB1216851E8031F226821F49071D3
:1057400042E80313002BDAD1216851E8051F2268D3
:1057500021F0010142E80513DBB1216851E8051F82
:10576000226821F0010142E8051393B1216851E854
:10577000051F226821F0010142E805134BB12168A1
:1057800051E8051F226821F0010142E80513002BB2
:10579000DAD1202184F83E1000212163216851E8EC
:1057A000031F226821F0100142E80313002B3FF48D
:1057B000A1AE216851E8031F226821F0100142E8E0
:1057C0000313002B3FF496AE216851E8031F2268B3
:1057D00021F0100142E80313002B3FF48BAE216847
:1057E00051E8031F226821F0100142E80313002B47
:1057F000D4D17FE6216A31F8022B6FF35F22426039
:1058000021628AE5002804BF0120704710B50446D4
:1058100090F83D0028B9002084F83C00204600F0B4
:1058200021F8242084F83D002068C16821F400514B
:10583000C160204602F052FC2068016921F49041C9
:105840000161416921F02A014161C16841F40051BF
:10585000C16000202021206484F83D1084F83E10AF
:1058600010BD00002DE9F04786B00446006841F203
:105870000041C4F2010100268842CDE90466CDE969
:10588000026601966ED041F20001C4F20101884225
:1058900040F0BB80002743F630000097C4F20200BE
:1058A0004169002541F0100141614169C4F20205DE
:1058B00001F01001009100990097016801AE41F0DC
:1058C0000201016001684FF0020801F0020100913D
:1058D0000099009701684FF0030941F00101016050
:1058E00000684FF0070A00F0010000900098802047
:1058F000019005F580603146CDE90287CDF8109022
:10590000CDF814A0FDF77AFD4FF40070CDE9010841
:1059100003A880E8800628463146FDF76FFD46F271
:10592000A040C4F2020040F2F0451830C2F2000577
:105930004FF00061402285E887004FF440304FF47B
:105940008063C5E908072846C5E90437C5E9067735
:10595000FDF712FC00284FF0250618BFFCF764F98C
:1059600049E000BF43F630000096C4F202004169EE
:1059700041F020014161416901F02001009100994D
:105980000096016841F040010160006801A900F043
:105990004000009000984FF4844001900220CDE92F
:1059A000020603200490082005900020C4F20200A3
:1059B00000F5C050FDF722FD40F2505546F2A040E0
:1059C000C2F20005C4F202004FF02061402285E8D7
:1059D00047004FF440304FF48063C5E9080628467D
:1059E000C5E90436C5E90666FDF7C6FB4FF0470674
:1059F00008B1FCF719F93046002100226563AC6359
:105A0000FEF718FA3046FEF701FA06B0BDE8F08757
:105A100090F83E30202B0BD100294FF0010318BF26
:105A2000002A01D11846704790F83C30012B01D173
:105A30000220704700230363816222218285C28590
:105A4000036480F83E100269016880F83C301AB1A6
:105A5000C86840F48070C8604869002340F00100C5
:105A60004861C86840F02000C860184670470000D0
:105A7000F0B581B0006841F20001C4F20101884232
:105A800044D041F20041C4F2010188424AD140F2BF
:105A90008017C2F2000739787888B1F1240340F208
:105AA000103218BF034698B2C2F2000211541678A1
:105AB000581C242E78803CD113794D2B39D1527942
:105AC000432A36D10A292FD140F2802584B2C2F26E
:105AD0000005C4F1500115FA80F04F2C88BF002159
